:100000000C94DC2B0C940D2C0C940D2C0C940D2CBE
:100010000C940D2C0C940D2C0C940D2C0C940D2C7C
:100020000C940D2C0C940D2C0C940D2C0C940D2C6C
:100030000C940D2C0D944B6B0C940D2C0C940D2CDE
:100040000C940D2C0C9415A50C940D2C0C940D2CCB
:100050000C940D2C0C940D2C0C9488EF0D94135CC7
:100060000C940D2C0C94C6950C940D2C0C940D2C0A
:100070000C940D2C0C940D2C0C940D2C0C940D2C1C
:100080000C940D2C0C940D2C0C940D2C0C940D2C0C
:100090000C9482950C940D2C0C940D2C0C940D2C1E
:1000A0000C940D2C0C940D2C0C940D2C0C940D2CEC
:1000B0000C940D2C0C940D2C0C940D2C0C940D2CDC
:1000C0000C940D2C0C940D2C0C940D2C0D94962747
:1000D0000C940D2C0C940D2C0C940D2C0C940D2CBC
:1000E0000C940D2C3ECD54CD67CD74CD7ECDAECDD0
:1000F000CFCDD5CDE2CDE7CDE9CDF3CD02CE12CE39
:100100001EE327E3D5E2A4E274E20FE64AE36BE4E0
:1001100016E56EE58AE5C1E572013E01BE01A80162
:100120009801C2015A01320166017E01B4014A01FF
:100130008C01C6017C01A601B80170019601B001D5
:100140003C013C01A2013C01A2016C018E0188012D
:10015000E4016001BC01D2015E01A0016A016801F5
:10016000D60136017801B2019E015E018A0150017B
:10017000AE01C801C4013401E0017A0174014801F3
:100180005C01D001D4015201CE013801A4017401F7
:10019000D801CC014C01084AD73B3BCE016E84BC50
:1001A000BFFDC12F3D6C74319ABD56833DDA3D00D1
:1001B000C77F11BED9E4BB4C3E916BAAAABE00001A
:1001C00000803F05A84CCDB2D44EB93836A9020CF8
:1001D00050B9918688083CA6AAAA2ABE00000080D1
:1001E0003F07634236B79BD8A71A39685618AEBA8C
:1001F000AB558C1D3CB7CC5763BD6DEDFD753EF620
:10020000177231BF000000803F08000000BE92243A
:1002100049123EABAAAA2ABECDCCCC4C3E0000006F
:1002200080BEABAAAAAA3E00000000BF000000806A
:100230003F0000000000084178D3BB4387D1133D45
:10024000190E3CC3BD4282AD2B3E68EC8276BED90E
:100250008FE1A93E4C80EFFFBE01C4FF7F3F00004D
:10026000000000000D94302C0D94395B0D94CF5993
:100270000D94945B0D94AE510D9441510D94E22B6D
:100280000D94165A0D941A5A0D94F94A0D94F64F7E
:100290000D94575B0D94712C0D94BC5B0D94AD4C7B
:1002A0000D94E7590D947B5B0D94205A0D942E31DB
:1002B0000D94BA1F0D94222C0D945F5B0D94F05990
:1002C0000D94A8590D94255A0D94844F0D943E2CED
:1002D0000D94C7590D94C1590D9447510D94C34DB8
:1002E0000D94C0490D94D42B0D94C65B0D94784D9C
:1002F0000D94D5590D944D5B0D9482490D944C2C61
:100300000D943D280D944A4D0D9423500D94DA51CF
:100310000D94B6590D94E3590D9478490D944A51B2
:100320000D941C4D0D944D280D949D510D94FD4937
:100330000D94162C0D94F7510D94D31F0D94DD5987
:100340000D94BD590D9444510D949E5B0D948B49B1
:100350000D94FA2B0D94A1670D9415520D94EB5941
:100360000D94344A0D94D9590D94632C0D94AF819A
:100370000D94A3490D94AB4C0D94AC590D94E82BFE
:100380000D940A7C0D941C2C0D94345B0D947C49C7
:100390000D942F5B0D94BD510D94B25B0D94855B54
:1003A0000D94675B0D94B2590D94715B0D94CB590C
:1003B0000D94A85B0D94124D0D9432520D94F8518A
:1003C0000D94435B0D94E9280D94B9596E616E004C
:1003D000696E66004E414E494E495459494E46CDCC
:1003E000CCCC3D0AD7233C17B7D13877CC2B3295EC
:1003F00095E6241FB14F0A000020410000C84200CA
:10040000401C4620BCBE4CCA1B0E5AAEC59D740093
:10041000407A10F35A00A0724E18090010A5D4E8D3
:100420000000E87648170000E40B54020000CA9A66
:100430003B000000E1F505000080969800000040B8
:10044000420F000000A086010000001027000000FD
:1004500000E803000000006400000000000A000043
:100460000000000100000000002C76D888DC674FF7
:100470000823DFC1DFAE59E1B1B796E5E3E453C627
:100480003AE651997696E8E6C28426EB898C9B621F
:10049000ED407C6FFCEFBC9C9F40F2BAA56FA5F4C9
:1004A00090055A2AF75C936B6CF9676DC11BFCE0F1
:1004B000E40D47FEF520E6B500D0ED902E03009444
:1004C0003577050080841E080000204E0A000000D9
:1004D000C80C333333330F986E12831141EF8D21E3
:1004E00014893BE65516CFFEE6DB18D1844B381B4A
:1004F000F77C1D901DA4BBE424203284725E22810F
:1005000000C9F124ECA1E53D276364696E6F707347
:100510007578585B00256420627974657320777262
:10052000697474656E20746F20454550524F4D209C
:10053000617420616464726573732030782530348F
:1005400078004433202D20526561642F57726974FE
:100550006520454550524F4D0A0020436F756E741B
:1005600020583A20005344207072696E74696E6797
:10057000206279746520004E6F7420696E20666178
:10058000726D206D6F64652E00416374697665201D
:1005900045787472756465723A2000496E76616CB4
:1005A0006964206578747275646572005A204F66BC
:1005B0006673657400556E6B6E6F776E20636F6D3A
:1005C0006D616E643A2022004D32303020496E76E3
:1005D000616C696420657874727564657220007A54
:1005E0005F6D61783A20007A5F6D696E3A2000791C
:1005F0005F6D696E3A20006F70656E005452494716
:10060000474552454400785F6D696E3A2000526557
:10061000706F7274696E6720656E6473746F70209A
:10062000737461747573000053494C454E54004E09
:100630004F524D414C002553204D4F44453A2050D8
:10064000657263656E7420646F6E653A2025643B45
:10065000207072696E742074696D652072656D61B9
:10066000696E696E6720696E206D696E733A202528
:10067000640A00456E642066696C65206C69737459
:1006800000426567696E2066696C65206C697374E9
:10069000000A50494E44412074656D706572617462
:1006A0007572653A20252E3166205A207368696676
:1006B0007420286D6D293A20252E3366000A537464
:1006C00065703A2025642F360A000A537465703A23
:1006D0002025642F362028736B6970706564290AA1
:1006E00050494E44412074656D7065726174757235
:1006F000653A202564205A20736869667420286D45
:100700006D293A300A000A5A45524F3A20252E33B5
:10071000660A0073746172742074656D706572612D
:10072000747572653A20252E31660A0025642020F2
:10073000252E326600255320583A20252E35662076
:10074000593A20252E3566205A3A20252E35660A3C
:1007500000536C6565702E2E2E004E6F7420696EEE
:10076000206661726D206D6F64652E002564004502
:10077000303A25642052504D0A50524E303A25648A
:100780002052504D0A00256400442D31202D204573
:100790006E646C657373206C6F6F700A00417574C2
:1007A0006F0020452F443D00416476616E636520F3
:1007B0004B3D004D323230205325690025534669A8
:1007C0006C616D656E742073657474696E67733ADD
:1007D0002044697361626C65640A00255346696C44
:1007E000616D656E742073657474696E67733A0A1F
:1007F00025532020204D3230302044252E32660AE9
:10080000002553526574726163743A20533D4C6500
:100810006E67746820286D6D2920463A53706565AF
:100820006420286D6D2F6D29205A3A205A4C696634
:100830007420286D6D290A25532020204D32303731
:100840002053252E32662046252E3266205A252E2C
:1008500032660A25535265636F7665723A20533DBE
:100860004578747261206C656E67746820286D6DC0
:100870002920463A537065656420286D6D2F6D29D7
:100880000A25532020204D3230382053252E326641
:100890002046252E32660A25534175746F2D526508
:1008A00074726163743A20533D3020746F20646920
:1008B0007361626C652C203120746F20696E7465E1
:1008C000727072657420657874727564652D6F6ED0
:1008D0006C79206D6F766573206173207265747218
:1008E00061637473206F72207265636F76657269DD
:1008F00065730A25532020204D323039205325645A
:100900000A0025535049442068656174626564207B
:1009100073657474696E67733A0A25532020204DFD
:100920003330342050252E32662049252E32662061
:1009300044252E32660A00255350494420736574BD
:1009400074696E67733A0A25532020204D33303185
:100950002050252E32662049252E32662044252E31
:1009600032660A00255353746570732070657220D7
:10097000756E69743A0A255320204D393220582566
:100980002E32662059252E3266205A252E326620B8
:1009900045252E32660A25534D6178696D756D20A7
:1009A00066656564726174657320286D6D2F7329A7
:1009B0003A0A255320204D3230332058252E3266F6
:1009C0002059252E3266205A252E32662045252EA6
:1009D00032660A25534D6178696D756D20616363D8
:1009E000656C65726174696F6E20286D6D2F73324E
:1009F000293A0A255320204D3230312058256C7574
:100A00002059256C75205A256C752045256C750A72
:100A10002553416363656C65726174696F6E3A203A
:100A2000533D616363656C65726174696F6E2C2000
:100A3000543D7265747261637420616363656C65B3
:100A4000726174696F6E0A255320204D3230342054
:100A500053252E32662054252E32660A25534164D2
:100A600076616E636564207661726961626C65733C
:100A70003A20533D4D696E20666565647261746508
:100A800020286D6D2F73292C20543D4D696E2074E4
:100A9000726176656C206665656472617465202894
:100AA0006D6D2F73292C20423D6D696E696D756DDA
:100AB000207365676D656E742074696D6520286D9F
:100AC00073292C20583D6D6178696D756D205859DA
:100AD000206A65726B20286D6D2F73292C20205A97
:100AE0003D6D6178696D756D205A206A65726B2065
:100AF000286D6D2F73292C2020453D6D6178696D1F
:100B0000756D2045206A65726B20286D6D2F7329E5
:100B10000A255320204D3230352053252E326620B1
:100B200054252E32662042252E32662058252E323C
:100B3000662059252E3266205A252E3266204525FC
:100B40002E32660A2553486F6D65206F66667365A1
:100B50007420286D6D293A0A255320204D323036F5
:100B60002058252E32662059252E3266205A252EF1
:100B700032660A004625642025640A004D4D552042
:100B80003C3D2027462564202564270A005049441F
:100B9000204175746F74756E652066696E6973683F
:100BA0006564212050757420746865206C617374CD
:100BB000204B702C204B6920616E64204B642063B5
:100BC0006F6E7374616E74732066726F6D206162F4
:100BD0006F766520696E746F20436F6E6669677506
:100BE000726174696F6E2E680050494420417574BB
:100BF0006F74756E65206661696C65642120746927
:100C00006D656F75740020403A00543A00423A0016
:100C1000504944204175746F74756E652066616932
:100C20006C6564212054656D7065726174757265C0
:100C300020746F6F206869676800204B643A200059
:100C4000204B693A2000204B703A200020436C6111
:100C5000737369632050494420002054753A200082
:100C6000204B753A2000206D61783A2000206D6994
:100C70006E3A200020643A200020626961733A20B5
:100C80000020453A00205A3A0020593A0020453ABF
:100C900000205A3A0020593A00583A00002E0044E9
:100CA000656C6574696F6E206661696C65642C2083
:100CB00046696C653A200046696C652064656C6520
:100CC0007465643A004E6F74205344207072696EEC
:100CD00074696E67005072696E7420736176656422
:100CE000005344207072696E74207061757365647E
:100CF000000A002F000A00222832290054004475FF
:100D0000706C696361746520542D636F646520693C
:100D1000676E6F7265642E0A004475706C6963615A
:100D2000746520542D636F64652069676E6F72650A
:100D3000642E0A00496E76616C6964205420636FEA
:100D400064652E00556E6B6E6F776E204D20636F5D
:100D500064653A202573200A006E6F2076616C6905
:100D60006420636F6D6D616E64002C20002C200088
:100D70002C20006E2F61002C20002C20002C200045
:100D80006E2F61002F00503A005761697420666F22
:100D9000722050494E44412074617267657420741A
:100DA000656D70657261747572653A004C414E47AD
:100DB0002053454C20464F524345440022283129B8
:100DC0000030303030303030302D303030302D3059
:100DD0003030302D303030302D3030303030303019
:100DE00030303030300020555549443A0031002031
:100DF00045585452554445525F434F554E543A005E
:100E0000426F756E63794265617200204D414348BF
:100E1000494E455F545950453A00312E300020620A
:100E200061736564206F6E204D61726C696E20463F
:100E300049524D574152455F55524C3A687474704F
:100E4000733A2F2F6769746875622E636F6D2F7008
:100E50007275736133642F50727573612D466972B8
:100E60006D776172652050524F544F434F4C5F561F
:100E7000455253494F4E3A004649524D574152450B
:100E80005F4E414D453A50727573612D4669726DE2
:100E90007761726520004D31313320530020423A92
:100EA0000020453A00543A0020503A002042403A8F
:100EB0000020403A00202F003A00205400202F004C
:100EC00020423A00202F006F6B20543A0025692001
:100ED0006D696E2C2025692073656300496E76610B
:100EE0006C6964204D20636F64653A202573200A85
:100EF00000556E6B6E6F776E204720636F64653AA6
:100F0000202573200A004D65736820626564206C9B
:100F10006576656C696E67206E6F742061637469B5
:100F200076652E000A002020000A4D6561737572F7
:100F3000656420706F696E74733A000A5A20736595
:100F400061726368206865696768743A20002C00E4
:100F50004E756D20582C593A2000206D6963726FD0
:100F60006E730045786365737369766520626564A6
:100F7000206C6576656C696E6720636F727265635D
:100F800074696F6E3A2000426564206C6576656C0A
:100F9000696E67206661696C65642E2053656E73A7
:100FA0006F722074726967676572656420746F6F11
:100FB00020686967682E0A00426564206C65766562
:100FC0006C696E67206661696C65642E2053656E7E
:100FD000736F7220646973636F6E6E6563746564AA
:100FE000206F72206361626C652062726F6B656E48
:100FF0002E0A004732382057300050494E444120D5
:1010000070726F62652063616C6962726174696F8E
:101010006E20737461727400473238205730004D6F
:101020003234005072657373206B6E6F6220746F80
:101030002070726568656174206E6F7A7A6C6520C5
:10104000616E6420636F6E74696E75652E00506CFE
:101050006561736520707265737320746865206BB9
:101060006E6F6220746F20756E6C6F6164206669AC
:101070006C616D656E740052656D6F7665206F6C86
:10108000642066696C616D656E7420616E642070A9
:101090007265737320746865206B6E6F6220746F65
:1010A000207374617274206C6F6164696E67206E66
:1010B00065772066696C616D656E742E00496E738C
:1010C0006572742066696C616D656E7400436F6C47
:1010D0006F72206E6F7420636F7272656374004666
:1010E000696C616D656E74206E6F74206C6F6164E5
:1010F0006564004368616E67656420636F72726542
:1011000063746C793F004C6F6164696E6720636F34
:101110006C6F72004368616E676520737563636509
:1011200073732100506C65617365206F70656E206C
:1011300069646C657220616E642072656D6F76659E
:101140002066696C616D656E74206D616E75616C91
:101150006C792E005761732066696C616D656E74E1
:1011600020756E6C6F61642073756363657373665D
:10117000756C3F00506C65617365207570677261B6
:1011800064652E004E6577206669726D77617265C1
:101190002076657273696F6E20617661696C616239
:1011A0006C653A0057616974696E6720666F7220DA
:1011B00050494E44412070726F626520636F6F6CBE
:1011C000696E670045787472756465720043686F74
:1011D0006F73652065787472756465723A00436850
:1011E0006F6F73652066696C616D656E743A004E51
:1011F0006F206D6F76652E005761697420666F727F
:1012000020757365722E2E2E00536F6D65207072DF
:101210006F626C656D20656E636F756E7465726567
:10122000642C205A2D6C6576656C696E6720656E3E
:10123000666F72636564202E2E2E00537461626C9B
:101240006520616D6269656E742074656D7065728C
:1012500061747572652032312D32364320697320F6
:101260006E656564656420612072696769642073D6
:1012700074616E642069732072657175697265644A
:101280002E00506C656173652072756E2058595A36
:101290002063616C6962726174696F6E2066697245
:1012A00073742E0058595A2063616C6962726174BC
:1012B000696F6E20616C6C2072696768742E2053B0
:1012C0006B65772077696C6C20626520636F727242
:1012D0006563746564206175746F6D6174696361C1
:1012E0006C6C792E0058595A2063616C6962726186
:1012F00074696F6E20616C6C2072696768742E204F
:10130000582F5920617865732061726520736C696C
:101310006768746C7920736B657765642E20476FFE
:101320006F64206A6F62210058595A2063616C69AA
:1013300062726174696F6E206F6B2E20582F592076
:1013400061786573206172652070657270656E6486
:101350006963756C61722E20436F6E67726174757C
:101360006C6174696F6E73210058595A2063616C07
:101370006962726174696F6E206661696C65642E62
:101380002052696768742066726F6E742063616CA6
:101390006962726174696F6E20706F696E74206E1D
:1013A0006F7420726561636861626C652E005859C4
:1013B0005A2063616C6962726174696F6E20666144
:1013C000696C65642E2046726F6E742063616C696F
:1013D00062726174696F6E20706F696E7473206ED3
:1013E0006F7420726561636861626C652E00585984
:1013F0005A2063616C6962726174696F6E20666104
:10140000696C65642E20506C6561736520636F6E36
:1014100073756C7420746865206D616E75616C2ED7
:101420000058595A2063616C6962726174696F6E09
:1014300020636F6D70726F6D697365642E205269E1
:101440006768742066726F6E742063616C69627283
:101450006174696F6E20706F696E74206E6F742096
:10146000726561636861626C652E0058595A206329
:10147000616C6962726174696F6E20636F6D707206
:101480006F6D697365642E2046726F6E74206361A0
:101490006C6962726174696F6E20706F696E7473CB
:1014A000206E6F7420726561636861626C652E00E6
:1014B00058595A2063616C6962726174696F6E2059
:1014C0006661696C65642E204265642063616C69A5
:1014D00062726174696F6E20706F696E74207761DB
:1014E00073206E6F7420666F756E642E00506C658D
:1014F00061736520706C61636520737465656C2031
:101500007368656574206F6E2068656174626564D8
:101510002E0044697374616E63652062657477653B
:10152000656E20746970206F6620746865206E6F28
:101530007A7A6C6520616E642074686520626564E7
:10154000207375726661636520686173206E6F74C5
:10155000206265656E20736574207965742E205055
:101560006C6561736520666F6C6C6F77207468655D
:10157000206D616E75616C2C20636861707465729A
:101580002046697273742073746570732C207365C0
:101590006374696F6E204669727374206C6179653B
:1015A000722063616C6962726174696F6E2E0050A3
:1015B0006C6163652061207368656574206F6620C7
:1015C000706170657220756E646572207468652044
:1015D0006E6F7A7A6C6520647572696E67207468C4
:1015E000652063616C6962726174696F6E206F66F9
:1015F000206669727374203420706F696E74732E64
:1016000020496620746865206E6F7A7A6C65206365
:1016100061746368657320746865207061706572B9
:101620002C20706F776572206F6666207468652065
:101630007072696E74657220696D6D65646961743C
:10164000656C792E00506C656173652072656D6FF5
:10165000766520737465656C2073686565742066B3
:10166000726F6D20686561746265642E0049732035
:10167000737465656C207368656574206F6E20688F
:101680006561746265643F00206F662034005365B5
:1016900061726368696E67206265642063616C696A
:1016A00062726174696F6E20706F696E7400206F72
:1016B000662039004D6561737572696E67207265C9
:1016C000666572656E636520686569676874206F1A
:1016D000662063616C6962726174696F6E20706FFD
:1016E000696E7400506C6561736520636C65616E32
:1016F00020746865206E6F7A7A6C6520666F722040
:1017000063616C6962726174696F6E2E20436C69EB
:10171000636B207768656E20646F6E652E0041757F
:10172000746F20686F6D650078797A63616C5F6DA6
:10173000656173737572655F656E7465720A0078B2
:10174000797A63616C5F73706972616C3820637859
:101750003D25642063793D2564207A303D25642051
:10176000647A3D2564207261646975733D25642047
:1017700061643D25640A0078797A63616C5F736502
:10178000617263685A206E6F207369676E616C0ABC
:1017900020783D256C6420793D256C64207A3D25B8
:1017A0006C640A00204F4E2D5349474E414C206136
:1017B0007420783D256420793D2564207A3D256498
:1017C0002061643D25640A0078797A63616C5F73F7
:1017D00065617263685A20783D256C6420793D25E7
:1017E0006C64207A3D256C640A000A00253032784A
:1017F0000078797A63616C5F7363616E5F7069789A
:10180000656C735F33327833322063783D25642012
:1018100063793D2564206D696E5F7A3D2564206D96
:1018200061785F7A3D25640A0020253264202564B2
:101830000A000A002530327800206D696E3D25646B
:10184000206D61783D2564206469663D25640A0049
:101850006D61785F633D253264206D61785F6C3D1A
:1018600025640A006D61785F633D2564206D6178B1
:101870005F723D2564206D61785F6D617463683DC2
:1018800025640A0020783D256420793D2564207A6E
:101890003D25640A00207061747465726E20666F65
:1018A000756E642061742025642025640A000000A0
:1018B000F000F801FC03FE07FE07FE07FE07FC032D
:1018C000F801F000000073697A656F6628746F7420
:1018D000616C293D25640A0073697A656F66286228
:1018E0006C6F636B5F627566666572293D25640A7D
:1018F0000078797A63616C5F6D6561737375726589
:101900005F6C656176650A00706F696E743D256471
:1019100020783D256420793D2564207A3D25640AA0
:1019200000BC02BC02584D584DB004F055F055B003
:101930000478797A63616C5F66696E645F6265647E
:101940005F696E64756374696F6E5F73656E736FE4
:10195000725F706F696E745F787920783D256C6472
:1019600020793D256C64207A3D256C640A00203C7A
:1019700020005741524E494E473A2046726F6E74CE
:1019800020706F696E74206E6F7420726561636879
:1019900061626C652E205920636F6F7264696E619D
:1019A00074653A0000000040410000804000005C87
:1019B000430000804000005C4300004443000040BE
:1019C0004100004443497465726174696F6E3A2046
:1019D0000043616C6962726174696F6E206661694F
:1019E0006C65642120436865636B207468652061C1
:1019F00078657320616E642072756E20616761691D
:101A00006E2E0058300A006164635F696E69740A63
:101A1000001B5B324A1B5B313B31484F726967697F
:101A20006E616C2050727573612069331B5B323BB1
:101A300033485072757361205265736561726368D3
:101A400000466163746F72792052455345540050CB
:101A50005255534133444657004D61792031392066
:101A60003230313900436F6D70696C65643A200023
:101A7000286E6F6E652C2064656661756C742063DA
:101A80006F6E66696729004D6179203139203230E7
:101A900031392031363A30303A33370020332E375F
:101AA0002E312D323236360A007374617274002082
:101AB00055706C6F616420696E2070726F6772651B
:101AC000737300205A3A0020593A0020583A004DCA
:101AD0003239005468657265206973207374696CCB
:101AE0006C2061206E65656420746F206D616B658C
:101AF000205A2063616C6962726174696F6E2E2076
:101B0000506C6561736520666F6C6C6F77207468CC
:101B100065206D616E75616C2C2063686170746501
:101B2000722046697273742073746570732C20730D
:101B3000656374696F6E2043616C69627261746978
:101B40006F6E20666C6F772E005072696E746572CE
:101B500020686173206E6F74206265656E2063611A
:101B60006C69627261746564207965742E20506CB2
:101B70006561736520666F6C6C6F77207468652093
:101B80006D616E75616C2C20636861707465722084
:101B900046697273742073746570732C2073656367
:101BA00074696F6E2043616C6962726174696F6EF3
:101BB00020666C6F772E004F6C64207365747469B7
:101BC0006E677320666F756E642E2044656661755E
:101BD0006C74205049442C204573746570732065E3
:101BE00074632E2077696C6C206265207365742E97
:101BF000005761726E696E673A20626F7468207078
:101C000072696E746572207479706520616E6420EB
:101C10006D6F74686572626F61726420747970654B
:101C2000206368616E6765642E005761726E696E2D
:101C3000673A207072696E746572207479706520DD
:101C40006368616E6765642E005761726E696E67C6
:101C50003A206D6F74686572626F61726420747986
:101C60007065206368616E6765642E002020506C8B
:101C7000616E6E65724275666665724279746573EF
:101C80003A20002046726565204D656D6F72793A85
:101C90002000207C20417574686F723A2000204C2F
:101CA00061737420557064617465643A2000205338
:101CB0006F66747761726520526573657400205792
:101CC00061746368646F67205265736574002042B5
:101CD000726F776E206F7574205265736574002083
:101CE00045787465726E616C20526573657400503E
:101CF0006F7765725570006572726F7220777269C6
:101D000074696E6720746F2066696C6500656E6427
:101D100073746F7073206869743A2000446F6E6545
:101D200020736176696E672066696C652E006F6B43
:101D30000045303A20005A3A2000593A2000583ADB
:101D400020004D53312C4D53322050696E730A00E0
:101D50004572723A205052494E542046414E204519
:101D600052524F52005072696E742066616E207339
:101D700070656564206973206C6F77657220746884
:101D8000656E206578706563746564004572723AAB
:101D900020455854522E2046414E204552524F5213
:101DA0000045787472756465722066616E20737088
:101DB000656564206973206C6F776572207468654F
:101DC0006E206578706563746564002F2F206163F1
:101DD00074696F6E3A7061757365004572723A206E
:101DE0004D494E54454D50003A2045787472756403
:101DF0006572207377697463686564206F66662E08
:101E0000204D494E54454D50207472696767657284
:101E100065642021004572723A204D494E54454D6B
:101E200050204245440054656D706572617475724E
:101E300065206865617465642062656420737769F4
:101E40007463686564206F66662E204D494E544564
:101E50004D50207472696767657265642021004582
:101E600072723A204D415854454D50003A20457801
:101E70007472756465722073776974636865642031
:101E80006F66662E204D415854454D50207472693E
:101E90006767657265642021004572723A204D4182
:101EA0005854454D50204245440054656D7065724C
:101EB000617475726520686561746564206265642B
:101EC000207377697463686564206F66662E204DA1
:101ED000415854454D502074726967676572656456
:101EE00020210070012C0190012701B0012201C0C6
:101EF000011D01F00118011002130130020E0160F2
:101F000002090190020401C002FF000003FA004030
:101F100003F5008003F000D003EB002004E600701E
:101F200004E100E004DC004005D700C005D2004019
:101F300006CD00D006C8008007C3003008BE00F000
:101F400008B900C009B400B00AAF00B00BAA00D0B5
:101F50000CA500000EA000500F9B00C01096005072
:101F600012910000148C00C0158700B0178200B0D9
:101F7000197D00D01B7800001E730040206E009079
:101F8000226900F024640040275F0090295A00E095
:101F90002B5500102E500020304B0010324600E030
:101FA00033410090353C001037370070383200A0C4
:101FB000392D00B03A2800A03B2300603C1E0010E1
:101FC0003D1900903D1400103E0F00703E0A00C005
:101FD0003E0500003F000020484F54454E44205429
:101FE0004845524D414C2052554E415741590020D1
:101FF0004845415442454420544845524D414C20A7
:1020000052554E4157415900544845524D414C207C
:1020100052554E415741590042454420544845527B
:102020004D414C2052554E4157415900205448458E
:10203000524D414C2052554E415741592028205075
:1020400052454845415420484F54454E44290020AC
:10205000544845524D414C2052554E41574159200C
:102060002820505245484541542048454154424556
:1020700044290050524548454154204552524F5240
:102080000042454420505245484541542045525253
:102090004F5200627573793A2070617573656420E0
:1020A000666F7220696E70757400627573793A207C
:1020B00070617573656420666F7220757365720058
:1020C000627573793A2070726F63657373696E67B6
:1020D000002563252D31382E3138532563002563C3
:1020E000252D2E31365320002563252E3135533AC8
:1020F000257325336400457872656D6520737061C2
:102100006E206F6620746865205A2076616C756554
:10211000732100426564206C6576656C696E67208A
:102120006661696C65642E2053656E736F722064FE
:1021300069646E7420747269676765722E204465E5
:1021400062726973206F6E206E6F7A7A6C653F20C1
:1021500057616974696E6720666F72207265736576
:10216000742E0043757272656E7400557365642039
:10217000647572696E67207072696E7400504944AC
:102180002063616C2E2066696E6973686564005017
:1021900049442063616C2E20202020202020202014
:1021A000202000506C656173652077616974004D73
:1021B000313137204669727374206C617965722001
:1021C00063616C2E005072696E7420706175736566
:1021D0006400496E76616C696420504944206361F3
:1021E0006C2E20726573756C74732E204E6F742084
:1021F00073746F72656420746F20454550524F4D63
:102200002E004D353030004731205A3135204631CF
:1022100035303000473931004731205835302059AA
:1022200031393020453020463730303000473930A2
:10223000004D373032004D3730322043004D3730BB
:10224000322055004D373032004D373032204300B8
:102250004731205A31352046313530300047393149
:102260000047312058353020593139302045302051
:102270004637303030004D383300473930004D3864
:1022800034004D313034205330004D3834004D3758
:102290003032204300473120583130205931383016
:1022A000204634303030004731205A31302046311A
:1022B0003330302E303030004D3134302053300048
:1022C0004D31303420533000473120452D302E30F1
:1022D000373530302046323130302E3030303030EB
:1022E000004D3130370047312058353020593535D1
:1022F0002045332E363237373300473120583230BD
:1023000030205935352045302E34393338360047A2
:10231000312058323030205937352045332E36326F
:10232000373733004731205835302059373520456D
:10233000302E343933383600473120583530205963
:1023400039352045332E3632373733004731205860
:10235000323030205939352045302E343933383633
:102360000047312058323030205931313520453343
:102370002E36323737330047312058353020593127
:1023800031352045302E3439333836004731205826
:10239000353020593133352045332E3632373733F7
:1023A0000047312058323030205931333520453004
:1023B0002E363631373400473120583230302059EC
:1023C0003135352045322E3632373733004731200C
:1023D00058313030205931353520453200473120D1
:1023E00058373520593135352045322E35004731A3
:1023F000204631303830004731205A302E313530C8
:102400002046373230302E303030004731205835BA
:1024100030205931353500473120463430303000D6
:102420004D323034205331303030004731205A356E
:102430002046373230302E30303000473120452DA5
:10244000312E35303030302046323130302E303081
:10245000303030004D3833004739300047323100DA
:102460004739322045302E30004731205831303046
:102470002E30204531322E352046313030302E304E
:10248000004731205836302E302045392E30204636
:10249000313030302E300047312058352E30204535
:1024A000342E302046313030302E30004731205A23
:1024B000302E32302046313030302E30004731203F
:1024C0005835352E30204532352046313430302EC7
:1024D0003000473120592D322E30204631303030F7
:1024E0002E3000473120583234302E3020453235DE
:1024F0002E30202046323230302E30004739322004
:1025000045302E30004731205A302E3320463130AE
:1025100030302E30004731205835352E30204538A8
:102520002E302046323030302E30004731205835A2
:102530002E30204533322E302046313830302E3088
:10254000004731205835352E30204533322E30208B
:1025500046313037332E30004731205A302E342068
:1025600046313030302E3000473120592D332E3057
:102570002046313030302E30004D3833004739326C
:102580002045302E3000473238004D31303920534D
:10259000323330004D31393020533830004D313432
:1025A0003020533830004D31303420533233300036
:1025B0004D3130370024F4D43050C38E20C2A240B5
:1025C00017828B7011127A910D816CD90AA861E182
:1025D00008C7586607615143061E4B5D05C145A7F4
:1025E000041A411104093D9803713931034036DB67
:1025F0000265339102D4305402802E1D02632CEE0A
:1026000001752AC501B028A001102781018F25641A
:10261000012B244B01E0223401AC211F018D200D40
:1026200001801FFC00841EED00971DDF00B81CD246
:1026300000E61BC600201BBC00641AB200B219A839
:10264000000A19A0006A189900D117910040178B51
:1026500000B516840031167E00B31579003A157363
:1026600000C7146F0058146A00EE136600881363E5
:102670000025135E00C7125B006C12570015125440
:1026800000C111510070114F0021114B00D61049AB
:10269000008D1047004610440002104200C00F4059
:1026A00000800F3E00420F3C00060F3B00CB0E386F
:1026B00000930E37005C0E3500270E3400F30D3208
:1026C00000C10D3100900D3000600D2E00320D2D37
:1026D00000050D2C00D90C2B00AE0C2900850C290F
:1026E000005C0C2700350C27000E0C2600E80B249C
:1026F00000C40B2400A00B23007D0B23005A0B21E8
:1027000000390B2100180B2000F80A1F00D90A1EFF
:1027100000BB0A1E009D0A1D00800A1D00630A1CE2
:1027200000470A1B002C0A1B00110A1A00F7091A9D
:1027300000DD091900C4091900AB09190092091735
:10274000007B091800630917004C091600360916AA
:1027500000200916000A091500F5081500E0081404
:1027600000CC081400B8081400A408140090081342
:10277000007D0812006B081300580812004608126A
:10278000003408110023081100120811000108117B
:1027900000F0071000E0071000D0071000C007107D
:1027A00000B0070F00A107100091070E0083070F6C
:1027B0000074070F0065070E0057070E0049070E4B
:1027C000003B070D002E070E0020070D0013070D1C
:1027D0000006070D00F9060C00ED060D00E0060CE2
:1027E00000D4060C00C8060C00BC060C00B0060C99
:1027F00000A4060B0099060C008D060B0082060B48
:102800000077060B006C060B0061060A0057060BEA
:10281000004C060A0042060A0038060A002E060A84
:102820000024060A001A060A001006090007060A14
:1028300000FD050900F4050900EB050900E20509A2
:1028400000D9050900D0050900C7050900BE050922
:1028500000B5050800AD050800A50509009C0508A0
:1028600000940508008C050800840508007C050814
:1028700000740508006C050700650508005D050784
:1028800000560508004E05070047050700400508EB
:102890000038050700310507002A05070023050752
:1028A000001C050600160507000F050700080506B1
:1028B0000002050700FB040600F5040700EE04060D
:1028C00000E8040600E2040700DB040600D5040665
:1028D00000CF040600C9040600C3040600BD0406B8
:1028E00000B7040600B1040500AC040600A6040607
:1028F00000A00405009B0406009504050090040652
:10290000008A04050085040500800406007A040599
:102910000075040500700405006B040500660405DD
:1029200000610405005C040500570405005204051D
:10293000004D04050048040500430405003E04045E
:10294000003A04050035040500300404002C040599
:102950000027040400230405001E0404001A0404D4
:102960000016040500110404000D04040009040508
:10297000000404040000040400FC030400F8030441
:1029800000F4030400F0030400EC030400E8030473
:1029900000E4030400E0030400DC030400D80304A3
:1029A00000D4030400D0030400CC030400C80303D4
:1029B00000C503030024F404D9201BC40C5C0E984A
:1029C00004C4095F0265077101F405F900FB04B353
:1029D0000048048700C103690058035500030345FC
:1029E00000BE023A008402310053022A0029022567
:1029F0000004022000E4011C00C8011900AF011707
:102A0000009801140084011300710110006101108D
:102A10000051010E0043010D0036010B002B010B8C
:102A20000020010B00150109000C01090003010839
:102A300000FB000800F3000800EB000700E40006BC
:102A400000DE000600D8000600D2000600CC00051B
:102A500000C7000500C2000500BD000400B9000465
:102A600000B5000400B1000400AD000400A900049A
:102A700000A5000300A20003009F0004009B0003C8
:102A800000980003009500020093000300900003EB
:102A9000008D0002008B0003008800020086000207
:102AA0000084000300810002007F0002007D00021C
:102AB000007B00020079000200770001007600022E
:102AC000007400020072000100710002006F000239
:102AD000006D0001006C0002006A00010069000244
:102AE000006700010066000100650001006400024B
:102AF000006200010061000100600001005F00024F
:102B0000005D0001005C0001005B0001005A000153
:102B10000059000100580001005700010056000153
:102B20000055000100540001005300000053000153
:102B3000005200010051000100500001004F00014F
:102B4000004E0000004E0001004D0001004C00014D
:102B5000004B0000004B0001004A00010049000149
:102B60000048000000480001004700010046000046
:102B7000004600010045000000450001004400013E
:102B80000043000000430001004200000042000139
:102B9000004100000041000100400001003F000032
:102BA000003F0001003E0000003E0001003D00002B
:102BB000003D0001003C0000003C0000003C000122
:102BC000003B0000003B0001003A0000003A000119
:102BD0000039000000390001003800000038000012
:102BE0000038000100370000003700010036000007
:102BF00000360000003600010035000000350000FE
:102C000000350001003400000034000000340001F1
:102C100000330000003300000033000100320000E8
:102C200000320000003200010031000000310000DD
:102C300000310001003000000030000000300001D1
:102C4000002F0000002F0000002F0000002F0001C7
:102C5000002E0000002E0000002E0001002D0000BC
:102C6000002D0000002D0000002D0001002C0000B0
:102C7000002C0000002C0000002C0001002B0000A4
:102C8000002B0000002B0000002B0001002A000098
:102C9000002A0000002A0000002A0001002900008C
:102CA000002900000029000000290000002900017F
:102CB0000028000000280000002800000028000074
:102CC0000028000100270000002700000027000066
:102CD0000027000000270001002600000026000059
:102CE000002600000026000000260001002500004C
:102CF0000025000000250000002500000025000040
:102D00000025000100240000002400000024000031
:102D10000024000000240001002300000023000024
:102D20000023000000230000002300000023000017
:102D30000023000100220000002200000022000009
:102D400000220000002200000022000100210000FB
:102D500000210000002100000021000000210000EF
:102D600000210000002100010020000000200000E0
:102D700000200000002000000020000000200000D3
:102D80000020000000200001001F0000001F0000C4
:102D9000001F0000001F0000001F0000001F0000B7
:102DA000001F0001001E0000001E0000001E0000A9
:102DB000001E000000506C656173652072656D6FC8
:102DC00076652066696C616D656E7420616E642045
:102DD0007468656E20707265737320746865206B0B
:102DE0006E6F622E00456A656374696E672066695E
:102DF0006C616D656E74004D4D55206C6F61642083
:102E00006661696C656420202020200046696C6141
:102E10006D656E74206E72206F7574206F662072FF
:102E2000616E676521004164646974696F6E616CED
:102E3000206C6F616420617474656D7074206E72B3
:102E40002E2025640A0020746F6F206C6F6E67203F
:102E5000657874727573696F6E2070726576656ED1
:102E60007465640020636F6C642065787472757398
:102E7000696F6E2070726576656E746564004C6F64
:102E80006164696E672066696C616D656E7400507F
:102E90006C6561736520696E7365727420504C4176
:102EA0002066696C616D656E7420746F207468654E
:102EB0002065787472756465722C207468656E2064
:102EC0007072657373206B6E6F6220746F206C6F0D
:102ED00061642069742E00506C6561736520696EB1
:102EE0007365727420504C412066696C616D656E2B
:102EF0007420746F2074686520666972737420741E
:102F0000756265206F66204D4D552C207468656E86
:102F100020707265737320746865206B6E6F622019
:102F2000746F206C6F61642069742E00596F752076
:102F300063616E20616C7761797320726573756D62
:102F400065207468652057697A6172642066726FC3
:102F50006D2043616C6962726174696F6E202D3EF1
:102F60002057697A6172642E00506C656173652028
:102F7000636865636B206F75722068616E64626F51
:102F80006F6B20616E6420666978207468652070BC
:102F9000726F626C656D2E205468656E2072657369
:102FA000756D65207468652057697A617264206266
:102FB00079207265626F6F74696E6720746865202E
:102FC0007072696E7465722E00416C6C206973209A
:102FD000646F6E652E204861707079207072696E22
:102FE00074696E672100506C6561736520636C6560
:102FF000616E206865617462656420616E6420742E
:1030000068656E20707265737320746865206B6EDE
:103010006F622E00446F20796F752077616E742087
:10302000746F20726570656174206C6173742073B5
:1030300074657020746F20726561646A75737420A2
:1030400064697374616E6365206265747765656E2B
:10305000206E6F7A7A6C6520616E64206865617499
:103060006265643F00492077696C6C2073746172FB
:103070007420746F207072696E74206C696E6520A4
:10308000616E6420796F752077696C6C206772615E
:103090006475616C6C79206C6F77657220746865FB
:1030A000206E6F7A7A6C6520627920726F74617419
:1030B000696E6720746865206B6E6F622C20756E78
:1030C00074696C20796F75207265616368206F7018
:1030D00074696D616C206865696768742E20436847
:1030E00065636B20746865207069637475726573BD
:1030F00020696E206F75722068616E64626F6F6BFD
:1031000020696E20636861707465722043616C6928
:1031100062726174696F6E2E004E6F77204920775E
:10312000696C6C2063616C696272617465206469AA
:103130007374616E6365206265747765656E207473
:103140006970206F6620746865206E6F7A7A6C658E
:1031500020616E64206865617462656420737572B5
:10316000666163652E00497320697420504C4120CC
:1031700066696C616D656E743F0053656C65637460
:10318000206E6F7A7A6C6520707265686561742054
:1031900074656D70657261747572652077686963B6
:1031A00068206D61746368657320796F7572206D36
:1031B0006174657269616C2E004E6F7720492077CB
:1031C000696C6C2070726568656174206E6F7A7AC4
:1031D0006C6520666F7220504C412E00497320664A
:1031E000696C616D656E74206C6F616465643F002D
:1031F00049732066696C616D656E742031206C6F57
:10320000616465643F004E6F7720492077696C6C7C
:103210002070726568656174206E6F7A7A6C6520C3
:10322000666F7220504C412E00492077696C6C20EB
:1032300072756E207A2063616C6962726174696F65
:103240006E206E6F772E004E6F772072656D6F76F1
:1032500065207468652074657374207072696E747B
:103260002066726F6D20737465656C207368656588
:10327000742E00506C656173652072656D6F7665A4
:10328000207368697070696E672068656C7065721C
:10329000732066697273742E00492077696C6C2004
:1032A00072756E2078797A2063616C6962726174DC
:1032B000696F6E206E6F772E2049742077696C6C71
:1032C0002074616B6520617070726F782E203132CE
:1032D000206D696E732E0046697273742C2049202C
:1032E00077696C6C2072756E207468652073656CEC
:1032F000667465737420746F20636865636B206DFA
:103300006F737420636F6D6D6F6E20617373656D85
:10331000626C792070726F626C656D732E00486903
:103320002C204920616D20796F7572204F7269677A
:10333000696E616C20507275736120693320707200
:10334000696E7465722E20576F756C6420796F7585
:10335000206C696B65206D6520746F2067756964EA
:103360006520796F75207468726F7567682074685E
:10337000652073657475702070726F636573733F39
:103380000053706F6F6C4A6F696E2020205B6F6610
:10339000665D0053706F6F6C4A6F696E202020204D
:1033A0005B6F6E5D00536F756E64202020202020BF
:1033B0005B6C6F75645D00536F756E642020202018
:1033C00020205B6D7574655D00536F756E64202001
:1033D00020205B73696C656E745D00536F756E645D
:1033E0002020202020205B6F6E63655D00536F7589
:1033F0006E642020202020205B6C6F75645D00537C
:103400006F7274202020202020205B6E6F6E655D1F
:1034100000536F72742020205B616C70686162657C
:10342000745D00536F7274202020202020205B7474
:10343000696D655D005344206361726420205B6E9A
:103440006F726D616C5D0053442063617264205B38
:10345000666C73684169725D0054656D702E2063FF
:10346000616C2E2020205B6F6E5D0054656D702EA8
:103470002063616C2E20205B6F66665D004D657376
:103480006820626564206C6576656C696E670046CD
:10349000616E7320636865636B20205B6F66665D99
:1034A0000046616E7320636865636B2020205B6F4C
:1034B0006E5D0044697361626C6520737465707041
:1034C000657273004D6F766520617869730054658D
:1034D0006D70657261747572650054656D702E2033
:1034E00063616C6962726174696F6E0052657365C5
:1034F000742058595A2063616C6962722E005368B7
:103500006F7720656E642073746F70730050494448
:103510002063616C6962726174696F6E00426564F8
:10352000206C6576656C20636F7272656374004D04
:1035300065736820426564204C6576656C696E67CA
:103540000043616C696272617465205A0043616C6A
:103550006962726174652058595A0053656C6674CB
:1035600065737420202020202020202000466972CE
:103570007374206C617965722063616C2E005769E9
:103580007A617264004C6F616420616C6C00456A02
:103590006563742066696C616D656E7400506C655E
:1035A0006173652070756C6C206F75742066696C32
:1035B000616D656E7420696D6D6564696174656CBB
:1035C0007900556E6C6F6164696E672066696C6125
:1035D0006D656E7400526573756D696E67207072EB
:1035E000696E7400537570706F7274004661696C17
:1035F000207374617473204D4D5500537461746968
:10360000737469637320200043616C696272617432
:10361000696F6E00456A6563742066696C616D65EB
:103620006E7400556E6C6F61642066696C616D65C7
:103630006E74004C6F616420746F206E6F7A7A6CC8
:1036400065004C6F61642066696C616D656E740025
:103650004E6F2053442063617264005072696E742F
:103660002066726F6D20534400526573756D65203E
:103670007072696E74005061757365207072696E46
:103680007400507265686561740054756E65004C15
:103690006976652061646A757374205A00496E66A4
:1036A0006F2073637265656E0057697A617264207A
:1036B000656E642073746174653A2025640A00574E
:1036C000697A6172642073746174653A20256400BC
:1036D00044697361626C65206661726D206D6F6410
:1036E00065004661726D206E756D626572004D38C1
:1036F00034004D3434004732382057004739390000
:1037000044697361626C65206661726D206D6F64DF
:10371000653F0043686F6F736520636F6C6F723A2B
:10372000004661726D206E756D62657200504C418D
:10373000202D20203231352F3630005045542020A6
:103740002D20203233302F38350041425320202D98
:1037500020203233302F383000435553544F4D2002
:10376000202D20203233302F383000252D31322EBD
:10377000313253252B382E316600457874727564CA
:1037800065723A006D6D000059005800583A0059B2
:103790003A005A3A002563252E3132533A257325D3
:1037A0002B30362E336600202020202020202020A1
:1037B000202020202020202020202000507265681A
:1037C00065617420746865206E6F7A7A6C6521007B
:1037D0004552524F523A0046696C616D656E7420D5
:1037E000657874727564696E6720262077697468DD
:1037F00020636F727265637420636F6C6F723F0039
:10380000546F74616C207072696E742074696D6598
:1038100000546F74616C2066696C616D656E740034
:103820005072696E742074696D650046696C616DD3
:10383000656E742075736564005269676874004C26
:1038400065667400592064697374616E63652066EF
:10385000726F6D206D696E005365766572652073B9
:103860006B657700536C6967687420736B657700CC
:103870004D6561737572656420736B6577005B30AD
:103880003B305D20706F696E74206F66667365747F
:103890000041646A757374696E67205A00526573DB
:1038A000657400526561722073696465205B756D93
:1038B0005D0046726F6E7420736964655B756D5D43
:1038C00000526967687420736964655B756D5D009B
:1038D0004C6566742073696465205B756D5D00538B
:1038E00065742074656D70657261747572653A00F7
:1038F000417265206C65667420616E642072696730
:103900006874205A7E6361727269616765732061B1
:103910006C6C2075703F0043616C69627261746900
:103920006E672058595A2E20526F74617465207446
:103930006865206B6E6F6220746F206D6F766520F6
:10394000746865205A2063617272696167652075C9
:103950007020746F2074686520656E642073746FC6
:1039600070706572732E20436C69636B2077686595
:103970006E20646F6E652E0043616C6962726174C3
:10398000696E67205A2E20526F74617465207468C6
:1039900065206B6E6F6220746F206D6F766520748A
:1039A0006865205A2063617272696167652075706D
:1039B00020746F2074686520656E642073746F7066
:1039C000706572732E20436C69636B207768656E37
:1039D00020646F6E652E001B5B324A2553203A1B14
:1039E0005B313B394825382E3266206D0A2553203D
:1039F0003A0A25376C6464203A2532686864682086
:103A00003A253032686864206D001B5B324A2553CA
:103A10003A1B5B313B364825382E32666D200A252D
:103A200053203A1B5B333B384825326468202530ED
:103A300032646D2025303264730025362E32666D77
:103A40006D004E2F41001B5B303B304825533A0A36
:103A500025530A25533A0A25533A001B5B303B3164
:103A600035484E2F41001B5B303B31354825342E05
:103A7000326601001B5B303B304825533A0A255320
:103A80000A25533A202025352E3266010A25533A5D
:103A9000202025352E326601006F6B0A0073746199
:103AA00072740A004D4D5532206669726D776172ED
:103AB000652076657273696F6E20696E76616C69D8
:103AC000642E205265717569726564207665727323
:103AD000696F6E3A206275696C64206E756D6265FF
:103AE00072202564206F72206869676865722E00F5
:103AF0006673656E736F725F73746F705F616E640F
:103B00005F736176655F7072696E740A004D4D5522
:103B1000203D3E20276F6B270A004D4D55203D3E2E
:103B200020276F6B270A002564004D4D55203D3E30
:103B300020276F6B272C20726573756D652070725E
:103B4000696E740A004D4D5520726574727920615A
:103B50007474656D7074206E722E2025640A004D99
:103B60004D55203D3E20276F6B270A00410A004D2E
:103B70004D55203C3D202741270A004D363030006E
:103B80004D363030204155544F005052555341204E
:103B90006673656E736F725F7265636F76657200D0
:103BA0002568687500410A004D4D55203C3D202791
:103BB00041270A0050300A004D25640A004D4D553A
:103BC000203C3D20274D2564270A0057300A004D30
:103BD0004D55203C3D20275730270A0053330A001B
:103BE0004D4D55203C3D20275333270A0052300AC3
:103BF000004D4D55203C3D20275230270A004B25D3
:103C0000640A004D4D55203C3D20274B2564270A72
:103C1000004525640A004D4D55203C3D2027452593
:103C200064270A0055300A004D4D55203C3D2027A1
:103C30005530270A0043300A004D4D55203C3D20A9
:103C4000274330270A004C25640A004D4D55203C7F
:103C50003D20274C2564270A005425640A004D4D59
:103C600055203C3D2027542564270A004D4D552002
:103C70002D20454E41424C45440025686875005052
:103C8000300A004D310A004D4D55203C3D20274D56
:103C90003127004D4D552076657273696F6E207621
:103CA000616C6964004D4D55203D3E202725646FB1
:103CB0006B270A0025750053320A004D4D55203CF4
:103CC0003D2027533227004D4D55203D3E202725CE
:103CD000646F6B270A002575004D4D55206E6F747B
:103CE00020726573706F6E64696E67202D20444981
:103CF0005341424C45440053310A004D4D55203C40
:103D00003D2027533127004D4D55203D3E20277340
:103D10007461727427006572726F723A20756E6BEF
:103D20006E6F776E206D6F76650A006E6F206D6F17
:103D300076650A00542D636F64650A00756E6C6FBA
:103D400061640A006C6F61640A006D6D755F676580
:103D5000745F726573706F6E7365202D2062656786
:103D6000696E206D6F76653A20006D6D755F6765D1
:103D7000745F726573706F6E736528292072657445
:103D800075726E696E673A2025640A00556E6C6F15
:103D90006164696E672066696E6973686564203264
:103DA0000A00556E6C6F616420320A00556E6C6FAC
:103DB0006164696E672066696E6973686564203145
:103DC0000A00556E6C6F616420310A004D4D55201C
:103DD00073746172747320726573706F6E64696E50
:103DE000670A004D4D55206E6F7420726573706FB9
:103DF0006E64696E670A0046696C616D656E742059
:103E00006F7574206F662072616E6765202564206F
:103E10000A000000803F555585410000803F0000AA
:103E2000C84100000040555505420000C03F000059
:103E300048420000204055558542000070C1ABAAA1
:103E4000A642000060C10000A0410000C0C0000008
:103E5000204100002041ABAA3A41000020C1555545
:103E6000D540000048C2555505424D3730312045F8
:103E700034004D373031204533004D373031204547
:103E800032004D373031204531004D37303120453B
:103E90003000506C656173652075706461746520D5
:103EA0006669726D7761726520696E20796F7572CF
:103EB000204D4D55322E2057616974696E6720661A
:103EC0006F722072657365742E004D4D55204F4BF7
:103ED0002E20526573756D696E672E2E2E004D4D26
:103EE00055204F4B2E20526573756D696E6720709B
:103EF0006F736974696F6E2E2E2E004D4D55204FD5
:103F00004B2E20526573756D696E672074656D70F8
:103F1000657261747572652E2E2E00466978207464
:103F2000686520697373756520616E6420746865C7
:103F30006E20707265737320627574746F6E206F7B
:103F40006E204D4D5520756E69742E00507265734C
:103F50007320746865206B6E6F6220746F207265C9
:103F600073756D65206E6F7A7A6C652074656D70FF
:103F7000657261747572652E004D4D55206E6565D4
:103F80006473207573657220617474656E74696FF3
:103F90006E2E0025632533642F25642563001000F1
:103FA000C90210012C014001220170011801B00169
:103FB0000E01F00104015002FA00B002F0003003DB
:103FC000E600D003DC009004D2007005C800A00613
:103FD000BE000008B400B009AA00D00BA000600E1B
:103FE000960060118C000015820020197800C01D19
:103FF0006E00A0226400B0275A00902C50000031BF
:104000004600E0343C0010383200903A2800603C12
:104010001E00A03D1400803E0A00203F00003A2010
:1040200000202020202020202020202020202020B0
:104030002020202000203A200020202020202020A6
:104040002020202020202020202020202000202090
:104050002020202020202020202020002573002543
:10406000632533642F25642563005A25362E326676
:1040700020005A2020202D2D2D200025632533647B
:104080002525002D2D2D0025336868640025335328
:10409000253373252500205344002020200055534C
:1040A00042002025753E257500203F3E25750020E5
:1040B0004625750020463F0020463020200025631D
:1040C0002D2D3A2D2D2020002563253375682025C0
:1040D000632563002563253032753A253032752516
:1040E0006325630050494E44412048656174696E00
:1040F000670054656D702E2063616C2E2020202097
:104100002020202020200043616C69627261746964
:104110006F6E20646F6E650043616C6962726174DA
:10412000696E67205A0042656420646F6E650042C4
:1041300065642048656174696E67004865617469EB
:104140006E6720646F6E652E0048656174696E67E6
:104150000020003E003E0020003E003E0054656D01
:1041600070657261747572652063616C69627261F9
:1041700074696F6E206661696C65642E20436F6E92
:1041800074696E75652077697468207072657373E1
:10419000696E6720746865206B6E6F622E005465CF
:1041A0006D70657261747572652063616C696272AD
:1041B0006174696F6E20646F6E652E20436F6E743C
:1041C000696E7565207769746820707265737369AC
:1041D0006E6720746865206B6E6F622E005A300027
:1041E0005A310059300059310058300058310045DB
:1041F0006E642073746F7073206469616700473860
:1042000030004D3435004D3435205A0047373600E4
:1042100054656D70657261747572652063616C6957
:1042200062726174696F6E206661696C65640054C6
:10423000656D70657261747572652063616C696229
:10424000726174696F6E2069732066696E69736844
:10425000656420616E64206163746976652E205404
:10426000656D702E2063616C6962726174696F6E36
:104270002063616E2062652064697361626C6564AD
:1042800020696E206D656E752053657474696E6764
:10429000732D3E54656D702E2063616C2E004E2F81
:1042A0004100202030002020310049523A00464988
:1042B0004E44413A0050494E44413A0053656E73B2
:1042C0006F722073746174650045787472756465EB
:1042D00072004D6F7665205A004D6F76652059004B
:1042E0004D6F766520580043616C69627261746538
:1042F00000506C65617365206C6F616420504C41A7
:104300002066696C616D656E742066697273742EC7
:1043100000497320504C412066696C616D656E7474
:10432000206C6F616465643F0043616E63656C007F
:1043300046696C616D656E740053656C65637420CD
:10434000504C412066696C616D656E743A0052751F
:104350006E6E696E672057697A6172642077696C46
:104360006C2064656C6574652063757272656E742B
:104370002063616C6962726174696F6E207265732B
:10438000756C747320616E6420737461727420663E
:10439000726F6D2074686520626567696E6E696E04
:1043A000672E20436F6E74696E75653F00507265AD
:1043B00068656174696E67206E6F7A7A6C652E200D
:1043C000506C6561736520776169742E00456A657C
:1043D000637400556E6C6F61640055736520756E73
:1043E0006C6F616420746F2072656D6F76652066F6
:1043F000696C616D656E7420312069662069742076
:1044000070726F747275646573206F75747369640C
:1044100065206F66207468652072656172204D4D5D
:104420005520747562652E2055736520656A656335
:104430007420696620697420697320686964646502
:104440006E20696E20747562652E0046696E697310
:1044500068696E67206D6F76656D656E7473005365
:104460006F756E642020202020205B6C6F75645D6A
:1044700000536F756E642020202020205B6D7574C2
:10448000655D00536F756E64202020205B73696C3E
:10449000656E745D00536F756E64202020202020AF
:1044A0005B6F6E63655D00536F756E642020202026
:1044B00020205B6C6F75645D004D6F6465205B61EF
:1044C00075746F20706F7765725D004D6F64652045
:1044D000202020205B73696C656E745D004D6F64F5
:1044E00065205B6869676820706F7765725D00435F
:1044F00068616E67652066696C616D656E74004603
:104500006C6F77005370656564004D61676E65740C
:104510007320636F6D702E5B4E2F415D004D6167A0
:104520006E65747320636F6D702E5B4F66665D0001
:104530004D61676E65747320636F6D702E205B4FE5
:104540006E5D005A2D70726F6265206E722E202093
:1045500020205B335D005A2D70726F6265206E7291
:104560002E202020205B355D005A2D70726F626511
:10457000206E722E202020205B315D004D65736817
:104580002020202020202020205B3778375D004D20
:104590006573682020202020202020205B33783382
:1045A0005D0046616E20737065656400426564005D
:1045B0004E6F7A7A6C650053657474696E67730028
:1045C0005072696E742061626F727465640059651F
:1045D00073004E6F0053746F70207072696E7400B8
:1045E00046696C6520696E636F6D706C6574652ECD
:1045F00020436F6E74696E756520616E797761799D
:104600003F004261636B004D61696E004D36303092
:10461000004D3234004D323320257300052E2E001C
:1046200043616E6E6F7420656E746572207375627F
:104630006469723A200048656174696E6720646934
:104640007361626C65642062792073616665747958
:104650002074696D65722E0053544F505045442E9E
:104660002000004B494C4C45442E20005072696E8E
:104670007465722068616C7465642E206B696C6C63
:1046800028292063616C6C656421004B494C4C3ACD
:104690002025640A005072696E7465722073746F0D
:1046A000707065642064756520746F206572726F28
:1046B00072732E2046697820746865206572726F67
:1046C0007220616E6420757365204D39393920740C
:1046D0006F20726573746172742E202854656D703A
:1046E0006572617475726520697320726573657493
:1046F0002E2053657420697420616674657220727F
:10470000657374617274696E6729004D31303420AD
:10471000496E76616C69642065787472756465723F
:1047200020004D31303520496E76616C696420651A
:104730007874727564657220004D31303920496E8D
:1047400076616C69642065787472756465722000A6
:104750004D32313820496E76616C69642065787419
:10476000727564657220004D32323120496E766177
:104770006C696420657874727564657220002057D6
:104780003A0020453A00543A005A206C6976652078
:1047900061646A757374206F7574206F662072612E
:1047A0006E67652E2053657474696E6720746F2080
:1047B000302E20436C69636B20746F20636F6E74BE
:1047C000696E75652E005A206C6976652061646A91
:1047D000757374206F7574206F662072616E6765E3
:1047E0002E2053657474696E6720746F203000202A
:1047F000423A0020453A00543A00010210202008B5
:10480000081020401020408002010201080402012B
:10481000010204081020408080402010080402019A
:1048200080040201804020100804020108040201F3
:10483000010204081020408001020408102040807A
:10484000100804088010204004408010204004809C
:1048500000002200250028002B002E00310034002B
:1048600002010000050108010B010505050507050A
:1048700008080808020202020A0A080804040404DC
:104880000101010101010101030303030303030308
:10489000040707070C0C0C0C0C0C0C0C0202020297
:1048A00006060606060606060B0B0B0B0B0B0B0B80
:1048B00007070A0A0A0A0A0A050505040404080883
:1048C000022E002E004E6F77206672657368206698
:1048D000696C653A20004E6F7720646F696E6720BF
:1048E00066696C653A20002220706F730022207088
:1048F0006172656E743A2200535542524F555449C5
:104900004E452043414C4C207461726765743A22D5
:1049100000747279696E6720746F2063616C6C201B
:104920007375622D67636F64652066696C657320BB
:104930007769746820746F6F206D616E79206C6583
:1049400076656C732E204D4158206C6576656C2021
:1049500069733A006F6B0A001F1F1F1F1F1F1F1F65
:1049600057726974696E6720746F2066696C653A66
:10497000200046696C652073656C6563746564002E
:104980002053697A653A200046696C65206F70652E
:104990006E65643A200053442063617264206F6B3B
:1049A000006F70656E526F6F74206661696C65642C
:1049B00000766F6C756D652E696E6974206661692D
:1049C0006C656400534420696E6974206661696C8B
:1049D00000426F756E637942656172204F4B2E0005
:1049E000536F7274696E672066696C657300536FEC
:1049F0006D652066696C65732077696C6C206E6FDD
:104A00007420626520736F727465642E204D617826
:104A10002E204E6F2E206F662066696C65732069AC
:104A20006E203120666F6C64657220666F72207331
:104A30006F7274696E67206973203130302E000008
:104A4000002110422063308440A550C660E7700802
:104A50008129914AA16BB18CC1ADD1CEE1EFF13189
:104A600012100273325222B5529442F772D6623952
:104A70009318837BB35AA3BDD39CC3FFF3DEE362D9
:104A800024433420040114E664C774A44485546AA2
:104A9000A54BB528850995EEE5CFF5ACC58DD55369
:104AA00036722611163006D776F6669556B4465BF2
:104AB000B77AA719973887DFF7FEE79DD7BCC7C439
:104AC00048E5588668A7784008611802282338CC42
:104AD000C9EDD98EE9AFF9488969990AA92BB9F5C9
:104AE0005AD44AB77A966A711A500A333A122AFD92
:104AF000DBDCCBBFFB9EEB799B588B3BBB1AABA699
:104B00006C877CE44CC55C222C033C600C411CAEE1
:104B1000ED8FFDECCDCDDD2AAD0BBD688D499D97A8
:104B20007EB66ED55EF44E133E322E511E700E9F31
:104B3000FFBEEFDDDFFCCF1BBF3AAF599F788F88F8
:104B400091A981CAB1EBA10CD12DC14EF16FE180C9
:104B500010A100C230E3200450254046706760B9C0
:104B6000839893FBA3DAB33DC31CD37FE35EF3B119
:104B7000029012F322D2323542145277625672EA10
:104B8000B5CBA5A89589856EF54FE52CD50DC5E269
:104B900034C324A01481046674476424540544DBA0
:104BA000A7FAB79987B8975FE77EF71DC73CD7D3B9
:104BB00026F2369106B01657667676154634564C70
:104BC000D96DC90EF92FE9C899E9898AB9ABA94409
:104BD00058654806782768C018E1088238A3287D00
:104BE000CB5CDB3FEB1EFBF98BD89BBBAB9ABB7559
:104BF0004A545A376A167AF10AD01AB32A923A2ED0
:104C0000FD0FED6CDD4DCDAABD8BADE89DC98D26A8
:104C10007C076C645C454CA23C832CE01CC10C1FDF
:104C2000EF3EFF5DCF7CDF9BAFBABFD98FF89F17F8
:104C30006E367E554E745E932EB23ED10EF01E7CC3
:104C40003C3E5E2B3D3F2F5B5D3B2C2A225C00559A
:104C500053415254322072782046756C6C212121C8
:104C60000A0022206661696C65643A2042756666B6
:104C700065722066756C6C21002200256920686FC2
:104C8000757273202569206D696E757465730054A3
:104C9000494D454F55543A004D3131300046756C01
:104CA0006C205258204275666665720053657474B4
:104CB000696E67732053746F7265640053746F720A
:104CC00065642073657474696E67732072657472AD
:104CD000696576656400656E717565696E67202229
:104CE00000446F6E65207072696E74696E6720662D
:104CF000696C65004E6F204C696E65204E756D6263
:104D00006572207769746820636865636B73756D7D
:104D10002C204C617374204C696E653A20004E6FF4
:104D200020436865636B73756D2077697468206CC8
:104D3000696E65206E756D6265722C204C617374AE
:104D4000204C696E653A2000636865636B73756D0E
:104D5000206D69736D617463682C204C61737420DD
:104D60004C696E653A20004C696E65204E756D6227
:104D70006572206973206E6F74204C617374204CCF
:104D8000696E65204E756D6265722B312C204C6109
:104D90007374204C696E653A20006C63645F7365C0
:104DA0006C66636865636B5F617869732025642C4A
:104DB0002025640A002D2D2D2D2D2D2D2D2D2D2D51
:104DC0002D2D2D2D2D2D2D2D2D000000000000113D
:104DD0000A0446616C73652074726967676572695D
:104DE0006E6700537761707065640046726F6E7411
:104DF0002F6C6566742066616E730041786973007C
:104E000041786973206C656E677468004C6F6F73CE
:104E1000652070756C6C657900456E6473746F7095
:104E2000206E6F742068697400456E6473746F70CF
:104E3000004D6F746F7200456E6473746F70730011
:104E4000576972696E67206572726F72004265649D
:104E5000202F20486561746572004E6F7420636F67
:104E60006E6E6563746564004865617465722F5485
:104E70006865726D6973746F7200506C65617365FB
:104E800020636865636B203A0053656C66746573D4
:104E900074206572726F7220210046696C616D65C5
:104EA0006E742073656E736F72005072696E742039
:104EB00066616E3A00457874727564657220666149
:104EC0006E3A0043616C6962726174696E67206852
:104ED0006F6D650053656C667465737420666169F7
:104EE0006C6564202000416C6C20636F7272656396
:104EF0007420202020202000436865636B696E6762
:104F00002073656E736F72732000436865636B690D
:104F10006E6720686F74656E642020004368656367
:104F20006B696E6720626564202020202000436842
:104F300065636B696E67205A206178697320200071
:104F4000436865636B696E672059206178697320D7
:104F50002000436865636B696E672058206178693B
:104F600073202000436865636B696E6720656E641B
:104F700073746F7073004572726F72202D2073749A
:104F800061746963206D656D6F727920686173204B
:104F90006265656E206F7665727772697474656E8E
:104FA00000436172642072656D6F76656400436FC3
:104FB0006E74696E7565207769746820616E6F74B0
:104FC00068657220626F7764656E3F00250020205F
:104FD0002020202000202020202020004552415366
:104FE000494E4720616C6C206461746100466163C6
:104FF000746F72792052455345540000007A430083
:105000000052430000524300000000000080C09A9C
:1050100099193E00000000000080C09A99193E676F
:10502000636F64655F4D37303120626567696E0A72
:105030000078797A63616C5F73706972616C322099
:1050400063783D25642063793D2564207A303D25D1
:105050006420647A3D2564207261646975733D251E
:10506000642061643D25640A000000A0400000A0A7
:10507000400000004000007A43000056439AD95196
:1050800043FFFFFF48617264636F64656420446599
:105090006661756C742053657474696E6773204C17
:1050A0006F6164656400563200000000C842000071
:1050B000C8420000C843CD4C2143000048430000D3
:1050C0004843000040410000F042E8030000E803CC
:1050D0000000C80000008813000000409C4400400D
:1050E0009C440000000000000000204E0000000072
:1050F000204100002041CDCCCC3E000020400000EB
:1051000000000000000000000000CDCCCC3E3D0AB5
:105110008141FF08433EB099AB438F42FC42E65ABF
:10512000343F4C62B04500000000004040000034B5
:1051300042000000000000000000000041000000EC
:10514000E03F00002C4300002C43000040410000E1
:10515000F042C0030000C0030000C8000000881334
:10516000000010101010454550524F4D20457272EE
:105170006F7200000E1315110E00000004120912C8
:10518000040000001C1F11111F0000000619180365
:10519000130C00040E1F041C000000040A0A0A0A73
:1051A00011110E001F1511151F0000000103161C20
:1051B0000800000000110A04110A040C12120C006D
:1051C0000000005072696E742046414E004E6F7AA6
:1051D0007A6C652046414E00546F74616C004C61DE
:1051E0007374207072696E74004D4D55206C6F6140
:1051F00064206661696C73004D4D55206661696C71
:1052000073004C617374207072696E7420666169FA
:105210006C75726573004D4D5520706F7765722007
:105220006661696C73004D4D55206C6F616420663A
:1052300061696C73004D4D55206661696C73005453
:105240006F74616C206661696C757265730042658C
:1052500064004E6F7A7A6C6500436F6F6C646F7791
:105260006E0054656D70657261747572657300537C
:10527000656E736F7220696E666F00457874727523
:1052800064657220696E666F0058595A2063616CBC
:105290002E2064657461696C7300756E6B6E6F7738
:1052A0006E004D4D553220636F6E6E65637465649C
:1052B00000446174653A00686F77746F2E70727580
:1052C000736133642E636F6D00666F72756D2E703F
:1052D0007275736133642E636F6D007072757361E4
:1052E00033642E636F6D00746F20756E6C6F616434
:1052F0002066696C616D656E7400746F206C6F61FF
:10530000642066696C616D656E74005072657373BC
:1053100020746865206B6E6F62003E43616E63654A
:105320006C0050726568656174696E6720746F20E7
:105330006375740050726568656174696E67207486
:105340006F20656A65637400507265686561746991
:105350006E6720746F20756E6C6F616400507265AB
:1053600068656174696E6720746F206C6F6164009A
:105370001B5B303B304825533A2025346420525083
:105380004D0A25533A20202534642052504D0A00FE
:105390001B5B303B304825531B5B313B3148255369
:1053A0002020252D33641B5B323B314825532020C0
:1053B000252D33641B5B333B3148001B5B303B3096
:1053C0004825531B5B313B314825532020252D3385
:1053D000641B5B323B314825532020252D33641B51
:1053E0005B333B3148255320252D3364001B5B3252
:1053F0003B314850494E44413A2020202025642525
:1054000063001B5B303B314825533A202020256444
:1054100025631B5B313B314825533A202020202057
:10542000202564256300504C41202D202032313549
:105430002F36300050455420202D20203233302F7D
:1054400038350041425320202D20203233302F3870
:105450003000435553544F4D20202D2020323330FF
:105460002F383000414253202020202D202032337D
:10547000302F3830006E6F7A7A6C65202D20203204
:1054800035302F30006661726D2020202D202032B3
:1054900035302F343000466C6173684169722049A1
:1054A0005020416464723A004D4D55322020202036
:1054B0002020204E2F410025642E25642E25642DAA
:1054C0002564002046573A004D6179203139203259
:1054D00030313900453344763666756C6C00524184
:1054E0004D426F31336100315F37356D6D5F4D4B2C
:1054F0003235002D2D2D2D2D2D2D2D2D2D2D2D0029
:10550000207265706F20556E6B6E6F776E00203362
:105510002E372E312D32323636004669726D776164
:1055200072653A0025642E25642E25642E256400BC
:105530004D373032004D373031004D373032004D6D
:105540003730310022206661696C65643A2042750B
:10555000666665722066756C6C2100456E717565B6
:10556000696E6720746F207468652066726F6E7450
:105570003A2022004572726F723A002200456E7125
:105580007565696E6720746F207468652066726F38
:105590006E743A2022006563686F3A002079303DCE
:1055A00025640A002078303D25640A004F4B0A002C
:1055B0004552524F522061643D25640A002020204C
:1055C0007A303D25640A00207A303D25640A0020A7
:1055D00079303D25640A002078303D25640A007842
:1055E000797A63616C5F66696E645F706F696E740F
:1055F0005F63656E746572320A000000210024004A
:1056000027002A002D0030003300010100000401B2
:1056100007010A01000020002300260029002C00B9
:105620002F00320000010000030106010901000003
:105630000A0B02090C0D0E0807030401000000000C
:10564000000000000000000000000000000000005A
:105650000000000000000000000012111000000017
:10566000000000000000000000000000000000003A
:10567000000000000000000000000000000000002A
:10568000000000004D3234004D323320257300619C
:1056900075746F25692E67002E006F70656E206629
:1056A00061696C65642C2046696C653A200057611D
:1056B0006974696E6720666F72206E6F7A7A6C65A6
:1056C00020616E642062656420636F6F6C696E6731
:1056D0000053656C662074657374204F4B005365EE
:1056E0006C6620746573742073746172742020007A
:1056F000457874722066616E2073706565643A2027
:105700002564200A005072696E742066616E2073F1
:10571000706565643A202564200A0054657374201E
:10572000313A0A004D3834004731205A313520468D
:1057300031303030004732382057004E6F742073BC
:1057400070696E6E696E67005370696E6E696E6720
:10575000004C65667420686F74656E642066616EC7
:105760003F0046726F6E74207072696E74206661BD
:105770006E3F0046616E2074657374003E003E000B
:1057800020003E003E002000332E372E3100726391
:10579000006265746100616C706861006465760028
:1057A000526573656E640025533A20256C640A25A2
:1057B000530A0000B601C00111241FBECFEFD1E291
:1057C000DEBFCDBF00E00CBF16E0A0E0B2E0E6EA2D
:1057D000F8E203E00BBF02C007900D92A834B107B6
:1057E000D9F729E1A8E4B6E001C01D92A231B207C1
:1057F000E1F71BE2CBEDDBE200E006C021970109F7
:10580000802FFE010F946693CA3DD10780E0080700
:10581000A9F70F94C46F0D9442940C9400002F923A
:105820003F924F925F926F927F928F929F92AF9230
:10583000BF92CF92DF92EF92FF920F931F93CF937D
:10584000DF93CDB7DEB7C658D1090FB6F894DEBFE7
:105850000FBECDBF8091E8129091E912892B11F40F
:105860000C94056A82E080934E028FE193E00F94DE
:10587000B7458823B1F080914806909149066AE2C5
:1058800070E005960F94C193009711F0DC011C9213
:10589000809148069091490605960F945C2A0C94D5
:1058A000E86484E293E00F94B745882309F4A5C126
:1058B0008AE293E00F94B745882391F08091AB0979
:1058C000882311F40C94E8640F94075C6093ED1541
:1058D0007093EE158093EF159093F0150C94E86497
:1058E0008FE293E00F94B745882349F08091E30855
:1058F0008F938091E2088F9386E897E03DC083E321
:1059000093E00F94B745882329F14091F318509103
:10591000F4182CE3249FC001259F900D11249F9320
:105920008F934091F1185091F218249FC001259F48
:10593000900D11249F938F938FE697E09F938F9301
:105940000F9493890F900F900F900F900F900F90DE
:105950000C94E86487E393E00F94B7458823C9F07B
:105960008091AB09882391F08091B5068F93809147
:10597000B4068F938CE697E09F938F930F9493894F
:105980000F900F900F900F900C94E8648AE597E0C9
:10599000E0C08AE393E00F94B745882321F010928A
:1059A000B2060C94E8648EE393E00F94B745882325
:1059B00061F060E085EA9FE00F94EF8D61E08FE198
:1059C00090E10F94B3260C94E86483E493E00F9481
:1059D000B745882331F083E09AE10E9444E20C94B9
:1059E000E8648AE493E00F94B745882371F08091CE
:1059F000AB09882321F00D9400F00C94E86480E555
:105A000093E00E945A950C94E86482E693E00F9428
:105A1000B745882339F1809148069091490641E0C5
:105A200061E003960F9486108091211890912218BE
:105A3000A0912318B09124188093CE189093CF187A
:105A4000A093D018B093D11889E198E10F94831CEA
:105A50008C010F94B1200A30110531F70F94FE53D9
:105A60000C94E86485E693E00F94B745882381F0B1
:105A70000F94003581E08093C5068091480690918F
:105A8000490641E060E004960F9486100C94E864A7
:105A900089E693E00F94B745882309F45EC08091AE
:105AA000AB09882309F453C01092B30660910C1916
:105AB00070910D198BE390E00F940E8960910C1991
:105AC00070910D1983E590E00F940E8919821B8265
:105AD0001A82CE0101960E944CEC00E010E0FF24F7
